{
  "contractName": "Loan",
  "abi": [
    {
      "inputs": [],
      "payable": false,
      "stateMutability": "nonpayable",
      "type": "constructor"
    },
    {
      "anonymous": false,
      "inputs": [
        {
          "indexed": true,
          "internalType": "address",
          "name": "_borrower",
          "type": "address"
        },
        {
          "indexed": true,
          "internalType": "uint256",
          "name": "_depositAmount",
          "type": "uint256"
        }
      ],
      "name": "LogDeposit",
      "type": "event"
    },
    {
      "anonymous": false,
      "inputs": [
        {
          "indexed": false,
          "internalType": "address",
          "name": "_killer",
          "type": "address"
        }
      ],
      "name": "LogKilled",
      "type": "event"
    },
    {
      "anonymous": false,
      "inputs": [
        {
          "indexed": true,
          "internalType": "address",
          "name": "owner",
          "type": "address"
        },
        {
          "indexed": true,
          "internalType": "uint256",
          "name": "contractAmount",
          "type": "uint256"
        }
      ],
      "name": "LogKilledWithdraw",
      "type": "event"
    },
    {
      "anonymous": false,
      "inputs": [
        {
          "indexed": true,
          "internalType": "address",
          "name": "_lender",
          "type": "address"
        },
        {
          "indexed": true,
          "internalType": "uint256",
          "name": "_loanId",
          "type": "uint256"
        }
      ],
      "name": "LogLoanCreation",
      "type": "event"
    },
    {
      "anonymous": false,
      "inputs": [
        {
          "indexed": true,
          "internalType": "address",
          "name": "_borrower",
          "type": "address"
        },
        {
          "indexed": true,
          "internalType": "uint256",
          "name": "_loanID",
          "type": "uint256"
        },
        {
          "indexed": true,
          "internalType": "uint256",
          "name": "_paidBack",
          "type": "uint256"
        }
      ],
      "name": "LogPaid",
      "type": "event"
    },
    {
      "anonymous": false,
      "inputs": [
        {
          "indexed": false,
          "internalType": "address",
          "name": "_owner",
          "type": "address"
        }
      ],
      "name": "LogResumed",
      "type": "event"
    },
    {
      "anonymous": false,
      "inputs": [
        {
          "indexed": true,
          "internalType": "uint256",
          "name": "_loanID",
          "type": "uint256"
        },
        {
          "indexed": true,
          "internalType": "address",
          "name": "_borrower",
          "type": "address"
        },
        {
          "indexed": true,
          "internalType": "uint256",
          "name": "_amountRetrieved",
          "type": "uint256"
        }
      ],
      "name": "LogRetrieved",
      "type": "event"
    },
    {
      "anonymous": false,
      "inputs": [
        {
          "indexed": false,
          "internalType": "address",
          "name": "_owner",
          "type": "address"
        }
      ],
      "name": "LogStopped",
      "type": "event"
    },
    {
      "anonymous": false,
      "inputs": [
        {
          "indexed": false,
          "internalType": "address",
          "name": "newOwner",
          "type": "address"
        }
      ],
      "name": "OwnershipTransferred",
      "type": "event"
    },
    {
      "constant": true,
      "inputs": [],
      "name": "creditScore",
      "outputs": [
        {
          "internalType": "string",
          "name": "",
          "type": "string"
        }
      ],
      "payable": false,
      "stateMutability": "view",
      "type": "function"
    },
    {
      "constant": true,
      "inputs": [],
      "name": "getOwner",
      "outputs": [
        {
          "internalType": "address",
          "name": "_owner",
          "type": "address"
        }
      ],
      "payable": false,
      "stateMutability": "view",
      "type": "function"
    },
    {
      "constant": false,
      "inputs": [],
      "name": "kill",
      "outputs": [],
      "payable": false,
      "stateMutability": "nonpayable",
      "type": "function"
    },
    {
      "constant": true,
      "inputs": [],
      "name": "loanId",
      "outputs": [
        {
          "internalType": "uint256",
          "name": "",
          "type": "uint256"
        }
      ],
      "payable": false,
      "stateMutability": "view",
      "type": "function"
    },
    {
      "constant": true,
      "inputs": [
        {
          "internalType": "uint256",
          "name": "",
          "type": "uint256"
        }
      ],
      "name": "loans",
      "outputs": [
        {
          "internalType": "uint256",
          "name": "fullAmount",
          "type": "uint256"
        },
        {
          "internalType": "uint256",
          "name": "amount",
          "type": "uint256"
        },
        {
          "internalType": "uint256",
          "name": "interest",
          "type": "uint256"
        },
        {
          "internalType": "uint256",
          "name": "ID",
          "type": "uint256"
        },
        {
          "internalType": "address",
          "name": "lender",
          "type": "address"
        },
        {
          "internalType": "address",
          "name": "borrower",
          "type": "address"
        },
        {
          "internalType": "enum Loan.Status",
          "name": "status",
          "type": "uint8"
        },
        {
          "internalType": "uint256",
          "name": "requiredDeposit",
          "type": "uint256"
        }
      ],
      "payable": false,
      "stateMutability": "view",
      "type": "function"
    },
    {
      "constant": false,
      "inputs": [],
      "name": "resume",
      "outputs": [],
      "payable": false,
      "stateMutability": "nonpayable",
      "type": "function"
    },
    {
      "constant": false,
      "inputs": [
        {
          "internalType": "address",
          "name": "newOwner",
          "type": "address"
        }
      ],
      "name": "setOwner",
      "outputs": [
        {
          "internalType": "bool",
          "name": "success",
          "type": "bool"
        }
      ],
      "payable": false,
      "stateMutability": "nonpayable",
      "type": "function"
    },
    {
      "constant": false,
      "inputs": [],
      "name": "stop",
      "outputs": [],
      "payable": false,
      "stateMutability": "nonpayable",
      "type": "function"
    },
    {
      "constant": false,
      "inputs": [
        {
          "internalType": "string",
          "name": "_creditScore",
          "type": "string"
        }
      ],
      "name": "set",
      "outputs": [],
      "payable": false,
      "stateMutability": "nonpayable",
      "type": "function"
    },
    {
      "constant": true,
      "inputs": [],
      "name": "get",
      "outputs": [
        {
          "internalType": "string",
          "name": "",
          "type": "string"
        }
      ],
      "payable": false,
      "stateMutability": "view",
      "type": "function"
    },
    {
      "constant": false,
      "inputs": [
        {
          "internalType": "uint256",
          "name": "_interest",
          "type": "uint256"
        },
        {
          "internalType": "address",
          "name": "_borrower",
          "type": "address"
        },
        {
          "internalType": "uint256",
          "name": "_depositPercentage",
          "type": "uint256"
        }
      ],
      "name": "createLoan",
      "outputs": [
        {
          "internalType": "bool",
          "name": "",
          "type": "bool"
        }
      ],
      "payable": true,
      "stateMutability": "payable",
      "type": "function"
    },
    {
      "constant": false,
      "inputs": [
        {
          "internalType": "uint256",
          "name": "_loanId",
          "type": "uint256"
        }
      ],
      "name": "payLoanDeposit",
      "outputs": [],
      "payable": true,
      "stateMutability": "payable",
      "type": "function"
    },
    {
      "constant": false,
      "inputs": [
        {
          "internalType": "uint256",
          "name": "_loanId",
          "type": "uint256"
        }
      ],
      "name": "payBackLoan",
      "outputs": [],
      "payable": true,
      "stateMutability": "payable",
      "type": "function"
    },
    {
      "constant": false,
      "inputs": [
        {
          "internalType": "uint256",
          "name": "_loanId",
          "type": "uint256"
        }
      ],
      "name": "retrieveLoanFunds",
      "outputs": [],
      "payable": true,
      "stateMutability": "payable",
      "type": "function"
    },
    {
      "constant": true,
      "inputs": [
        {
          "internalType": "uint256",
          "name": "_loanId",
          "type": "uint256"
        }
      ],
      "name": "retrieveLoans",
      "outputs": [
        {
          "internalType": "uint256",
          "name": "fullAmount",
          "type": "uint256"
        },
        {
          "internalType": "uint256",
          "name": "amount",
          "type": "uint256"
        },
        {
          "internalType": "uint256",
          "name": "interest",
          "type": "uint256"
        },
        {
          "internalType": "address",
          "name": "lender",
          "type": "address"
        },
        {
          "internalType": "address",
          "name": "borrower",
          "type": "address"
        },
        {
          "internalType": "uint256",
          "name": "status",
          "type": "uint256"
        },
        {
          "internalType": "uint256",
          "name": "requiredDeposit",
          "type": "uint256"
        }
      ],
      "payable": false,
      "stateMutability": "view",
      "type": "function"
    },
    {
      "constant": false,
      "inputs": [],
      "name": "withdrawWhenKilled",
      "outputs": [],
      "payable": false,
      "stateMutability": "nonpayable",
      "type": "function"
    }
  ],
  "bytecode": "0x608060405234801561001057600080fd5b50336000806101000a81548173ffffffffffffffffffffffffffffffffffffffff021916908373ffffffffffffffffffffffffffffffffffffffff16021790555060008060146101000a81548160ff02191690831515021790555060008060156101000a81548160ff02191690831515021790555060018081905550612e048061009b6000396000f3fe6080604052600436106100f35760003560e01c80634ed3885e1161008a578063adfa63b411610059578063adfa63b414610582578063c21c29ed14610599578063c95669a5146105c7578063e1ec3c68146105f2576100f3565b80634ed3885e146103a55780636d4ce63c1461046d5780636faa8b3f146104fd578063893d20e81461052b576100f3565b806339da3152116100c657806339da3152146101ff5780633a98b4881461028f57806341c0e1b51461036057806344cce27614610377576100f3565b8063046f7da2146100f857806307da68f51461010f57806313af4035146101265780631b15cee61461018f575b600080fd5b34801561010457600080fd5b5061010d6106d8565b005b34801561011b57600080fd5b5061012461091e565b005b34801561013257600080fd5b506101756004803603602081101561014957600080fd5b81019080803573ffffffffffffffffffffffffffffffffffffffff169060200190929190505050610b66565b604051808215151515815260200191505060405180910390f35b6101e5600480360360608110156101a557600080fd5b8101908080359060200190929190803573ffffffffffffffffffffffffffffffffffffffff16906020019092919080359060200190929190505050610d79565b604051808215151515815260200191505060405180910390f35b34801561020b57600080fd5b506102146111ea565b6040518080602001828103825283818151815260200191508051906020019080838360005b83811015610254578082015181840152602081019050610239565b50505050905090810190601f1680156102815780820380516001836020036101000a031916815260200191505b509250505060405180910390f35b34801561029b57600080fd5b506102c8600480360360208110156102b257600080fd5b8101908080359060200190929190505050611288565b604051808881526020018781526020018681526020018573ffffffffffffffffffffffffffffffffffffffff1673ffffffffffffffffffffffffffffffffffffffff1681526020018473ffffffffffffffffffffffffffffffffffffffff1673ffffffffffffffffffffffffffffffffffffffff16815260200183815260200182815260200197505050505050505060405180910390f35b34801561036c57600080fd5b506103756114bf565b005b6103a36004803603602081101561038d57600080fd5b8101908080359060200190929190505050611706565b005b3480156103b157600080fd5b5061046b600480360360208110156103c857600080fd5b81019080803590602001906401000000008111156103e557600080fd5b8201836020820111156103f757600080fd5b8035906020019184600183028401116401000000008311171561041957600080fd5b91908080601f016020809104026020016040519081016040528093929190818152602001838380828437600081840152601f19601f820116905080830192505050505050509192919290505050611bce565b005b34801561047957600080fd5b50610482611be8565b6040518080602001828103825283818151815260200191508051906020019080838360005b838110156104c25780820151818401526020810190506104a7565b50505050905090810190601f1680156104ef5780820380516001836020036101000a031916815260200191505b509250505060405180910390f35b6105296004803603602081101561051357600080fd5b8101908080359060200190929190505050611c8a565b005b34801561053757600080fd5b506105406120fa565b604051808273ffffffffffffffffffffffffffffffffffffffff1673ffffffffffffffffffffffffffffffffffffffff16815260200191505060405180910390f35b34801561058e57600080fd5b50610597612123565b005b6105c5600480360360208110156105af57600080fd5b8101908080359060200190929190505050612400565b005b3480156105d357600080fd5b506105dc61285b565b6040518082815260200191505060405180910390f35b3480156105fe57600080fd5b5061062b6004803603602081101561061557600080fd5b8101908080359060200190929190505050612861565b604051808981526020018881526020018781526020018681526020018573ffffffffffffffffffffffffffffffffffffffff1673ffffffffffffffffffffffffffffffffffffffff1681526020018473ffffffffffffffffffffffffffffffffffffffff1673ffffffffffffffffffffffffffffffffffffffff1681526020018360028111156106b757fe5b60ff1681526020018281526020019850505050505050505060405180910390f35b6000809054906101000a900473ffffffffffffffffffffffffffffffffffffffff1673ffffffffffffffffffffffffffffffffffffffff163373ffffffffffffffffffffffffffffffffffffffff161461079a576040517f08c379a000000000000000000000000000000000000000000000000000000000815260040180806020018281038252601f8152602001807f4572726f723a206d73672e73656e646572206d757374206265206f776e65720081525060200191505060405180910390fd5b600060159054906101000a900460ff161561081d576040517f08c379a00000000000000000000000000000000000000000000000000000000081526004018080602001828103825260108152602001807f436f6e747261637420697320646561640000000000000000000000000000000081525060200191505060405180910390fd5b600060149054906101000a900460ff1661089f576040517f08c379a00000000000000000000000000000000000000000000000000000000081526004018080602001828103825260138152602001807f436f6e74726163742069732072756e6e696e670000000000000000000000000081525060200191505060405180910390fd5b60008060146101000a81548160ff0219169083151502179055507f29560ba70e3537fccc61029db8de08e30408a3f131625765c51e3e972a7867ad33604051808273ffffffffffffffffffffffffffffffffffffffff1673ffffffffffffffffffffffffffffffffffffffff16815260200191505060405180910390a1565b6000809054906101000a900473ffffffffffffffffffffffffffffffffffffffff1673ffffffffffffffffffffffffffffffffffffffff163373ffffffffffffffffffffffffffffffffffffffff16146109e0576040517f08c379a000000000000000000000000000000000000000000000000000000000815260040180806020018281038252601f8152602001807f4572726f723a206d73672e73656e646572206d757374206265206f776e65720081525060200191505060405180910390fd5b600060159054906101000a900460ff1615610a63576040517f08c379a00000000000000000000000000000000000000000000000000000000081526004018080602001828103825260108152602001807f436f6e747261637420697320646561640000000000000000000000000000000081525060200191505060405180910390fd5b600060149054906101000a900460ff1615610ae6576040517f08c379a00000000000000000000000000000000000000000000000000000000081526004018080602001828103825260138152602001807f436f6e7472616374206973207061757365642e0000000000000000000000000081525060200191505060405180910390fd5b6001600060146101000a81548160ff0219169083151502179055507fae2ff8b88a09be6cc9de7aa5e8efc037af3dfdb611a1217f8c70fc50975b8a8033604051808273ffffffffffffffffffffffffffffffffffffffff1673ffffffffffffffffffffffffffffffffffffffff16815260200191505060405180910390a1565b60008060009054906101000a900473ffffffffffffffffffffffffffffffffffffffff1673ffffffffffffffffffffffffffffffffffffffff163373ffffffffffffffffffffffffffffffffffffffff1614610c2a576040517f08c379a000000000000000000000000000000000000000000000000000000000815260040180806020018281038252601f8152602001807f4572726f723a206d73672e73656e646572206d757374206265206f776e65720081525060200191505060405180910390fd5b600073ffffffffffffffffffffffffffffffffffffffff168273ffffffffffffffffffffffffffffffffffffffff161415610ccd576040517f08c379a000000000000000000000000000000000000000000000000000000000815260040180806020018281038252601a8152602001807f4572726f723a20416464726573732063616e6e6f74206265203000000000000081525060200191505060405180910390fd5b7f04dba622d284ed0014ee4b9a6a68386be1a4c08a4913ae272de89199cc68616382604051808273ffffffffffffffffffffffffffffffffffffffff1673ffffffffffffffffffffffffffffffffffffffff16815260200191505060405180910390a1816000806101000a81548173ffffffffffffffffffffffffffffffffffffffff021916908373ffffffffffffffffffffffffffffffffffffffff16021790555060019050919050565b60008060149054906101000a900460ff1615610dfd576040517f08c379a00000000000000000000000000000000000000000000000000000000081526004018080602001828103825260138152602001807f436f6e7472616374206973207061757365642e0000000000000000000000000081525060200191505060405180910390fd5b600060159054906101000a900460ff1615610e80576040517f08c379a00000000000000000000000000000000000000000000000000000000081526004018080602001828103825260108152602001807f436f6e747261637420697320646561640000000000000000000000000000000081525060200191505060405180910390fd5b6064821115610eda576040517f08c379a0000000000000000000000000000000000000000000000000000000008152600401808060200182810382526024815260200180612cc46024913960400191505060405180910390fd5b600073ffffffffffffffffffffffffffffffffffffffff168373ffffffffffffffffffffffffffffffffffffffff161415610f7d576040517f08c379a000000000000000000000000000000000000000000000000000000000815260040180806020018281038252601e8152602001807f426f72726f776572277320616464726573732063616e6e6f742062652030000081525060200191505060405180910390fd5b60003411610fd6576040517f08c379a0000000000000000000000000000000000000000000000000000000008152600401808060200182810382526022815260200180612ce86022913960400191505060405180910390fd5b6001543373ffffffffffffffffffffffffffffffffffffffff167fe9f8c22c262ea6d87192756704ee1e94485d1875fda64d70aa43f13021c281ad60405160405180910390a36000611044606461103685346128f690919063ffffffff16565b61297c90919063ffffffff16565b9050600061105b86346129c690919063ffffffff16565b905060405180610100016040528082815260200134815260200187815260200160015481526020013373ffffffffffffffffffffffffffffffffffffffff1681526020018673ffffffffffffffffffffffffffffffffffffffff168152602001600160028111156110c857fe5b8152602001838152506003600060015481526020019081526020016000206000820151816000015560208201518160010155604082015181600201556060820151816003015560808201518160040160006101000a81548173ffffffffffffffffffffffffffffffffffffffff021916908373ffffffffffffffffffffffffffffffffffffffff16021790555060a08201518160050160006101000a81548173ffffffffffffffffffffffffffffffffffffffff021916908373ffffffffffffffffffffffffffffffffffffffff16021790555060c08201518160050160146101000a81548160ff021916908360028111156111c057fe5b021790555060e0820151816006015590505060018054016001819055506001925050509392505050565b60028054600181600116156101000203166002900480601f0160208091040260200160405190810160405280929190818152602001828054600181600116156101000203166002900480156112805780601f1061125557610100808354040283529160200191611280565b820191906000526020600020905b81548152906001019060200180831161126357829003601f168201915b505050505081565b60008060008060008060008060149054906101000a900460ff1615611315576040517f08c379a00000000000000000000000000000000000000000000000000000000081526004018080602001828103825260138152602001807f436f6e7472616374206973207061757365642e0000000000000000000000000081525060200191505060405180910390fd5b600060159054906101000a900460ff1615611398576040517f08c379a00000000000000000000000000000000000000000000000000000000081526004018080602001828103825260108152602001807f436f6e747261637420697320646561640000000000000000000000000000000081525060200191505060405180910390fd5b6003600089815260200190815260200160002060000154965060036000898152602001908152602001600020600101549550600360008981526020019081526020016000206002015494506003600089815260200190815260200160002060040160009054906101000a900473ffffffffffffffffffffffffffffffffffffffff1693506003600089815260200190815260200160002060050160009054906101000a900473ffffffffffffffffffffffffffffffffffffffff1692506003600089815260200190815260200160002060050160149054906101000a900460ff16600281111561148457fe5b915060036000898152602001908152602001600020600601549050868686868686869650965096509650965096509650919395979092949650565b6000809054906101000a900473ffffffffffffffffffffffffffffffffffffffff1673ffffffffffffffffffffffffffffffffffffffff163373ffffffffffffffffffffffffffffffffffffffff1614611581576040517f08c379a000000000000000000000000000000000000000000000000000000000815260040180806020018281038252601f8152602001807f4572726f723a206d73672e73656e646572206d757374206265206f776e65720081525060200191505060405180910390fd5b600060159054906101000a900460ff1615611604576040517f08c379a00000000000000000000000000000000000000000000000000000000081526004018080602001828103825260108152602001807f436f6e747261637420697320646561640000000000000000000000000000000081525060200191505060405180910390fd5b600060149054906101000a900460ff16611686576040517f08c379a00000000000000000000000000000000000000000000000000000000081526004018080602001828103825260138152602001807f436f6e74726163742069732072756e6e696e670000000000000000000000000081525060200191505060405180910390fd5b6001600060156101000a81548160ff0219169083151502179055507fdd1d1672156846fdc9d6e65d5701535f177a41834051f5f7328be7f4252bcb3133604051808273ffffffffffffffffffffffffffffffffffffffff1673ffffffffffffffffffffffffffffffffffffffff16815260200191505060405180910390a1565b600060149054906101000a900460ff1615611789576040517f08c379a00000000000000000000000000000000000000000000000000000000081526004018080602001828103825260138152602001807f436f6e7472616374206973207061757365642e0000000000000000000000000081525060200191505060405180910390fd5b600060159054906101000a900460ff161561180c576040517f08c379a00000000000000000000000000000000000000000000000000000000081526004018080602001828103825260108152602001807f436f6e747261637420697320646561640000000000000000000000000000000081525060200191505060405180910390fd5b6001600281111561181957fe5b6003600083815260200190815260200160002060050160149054906101000a900460ff16600281111561184857fe5b146118bb576040517f08c379a000000000000000000000000000000000000000000000000000000000815260040180806020018281038252601b8152602001807f4c6f616e20737461747573206d7573742062652050454e44494e47000000000081525060200191505060405180910390fd5b60036000828152602001908152602001600020600601543414611929576040517f08c379a0000000000000000000000000000000000000000000000000000000008152600401808060200182810382526021815260200180612d2b6021913960400191505060405180910390fd5b6003600082815260200190815260200160002060050160009054906101000a900473ffffffffffffffffffffffffffffffffffffffff1673ffffffffffffffffffffffffffffffffffffffff163373ffffffffffffffffffffffffffffffffffffffff16146119e3576040517f08c379a000000000000000000000000000000000000000000000000000000000815260040180806020018281038252602f815260200180612d6e602f913960400191505060405180910390fd5b60016003600083815260200190815260200160002060050160146101000a81548160ff02191690836002811115611a1657fe5b0217905550611a5a60036000838152602001908152602001600020600601546003600084815260200190815260200160002060000154612a4e90919063ffffffff16565b600360008381526020019081526020016000206000018190555060006003600083815260200190815260200160002060040160009054906101000a900473ffffffffffffffffffffffffffffffffffffffff1673ffffffffffffffffffffffffffffffffffffffff163460405180600001905060006040518083038185875af1925050503d8060008114611b0a576040519150601f19603f3d011682016040523d82523d6000602084013e611b0f565b606091505b5050905080611b86576040517f08c379a00000000000000000000000000000000000000000000000000000000081526004018080602001828103825260178152602001807f4572726f723a205472616e73666572206661696c65642e00000000000000000081525060200191505060405180910390fd5b343373ffffffffffffffffffffffffffffffffffffffff167f1b851e1031ef35a238e6c67d0c7991162390df915f70eaf9098dbf0b175a619860405160405180910390a35050565b8060029080519060200190611be4929190612c1e565b5050565b606060028054600181600116156101000203166002900480601f016020809104026020016040519081016040528092919081815260200182805460018160011615610100020316600290048015611c805780601f10611c5557610100808354040283529160200191611c80565b820191906000526020600020905b815481529060010190602001808311611c6357829003601f168201915b5050505050905090565b600060149054906101000a900460ff1615611d0d576040517f08c379a00000000000000000000000000000000000000000000000000000000081526004018080602001828103825260138152602001807f436f6e7472616374206973207061757365642e0000000000000000000000000081525060200191505060405180910390fd5b600060159054906101000a900460ff1615611d90576040517f08c379a00000000000000000000000000000000000000000000000000000000081526004018080602001828103825260108152602001807f436f6e747261637420697320646561640000000000000000000000000000000081525060200191505060405180910390fd5b6003600082815260200190815260200160002060050160009054906101000a900473ffffffffffffffffffffffffffffffffffffffff1673ffffffffffffffffffffffffffffffffffffffff163373ffffffffffffffffffffffffffffffffffffffff1614611e4a576040517f08c379a000000000000000000000000000000000000000000000000000000000815260040180806020018281038252602f815260200180612d6e602f913960400191505060405180910390fd5b60036000828152602001908152602001600020600001543414611eb8576040517f08c379a0000000000000000000000000000000000000000000000000000000008152600401808060200182810382526033815260200180612d9d6033913960400191505060405180910390fd5b60016002811115611ec557fe5b6003600083815260200190815260200160002060050160149054906101000a900460ff166002811115611ef457fe5b14611f67576040517f08c379a000000000000000000000000000000000000000000000000000000000815260040180806020018281038252601a8152602001807f4c6f616e20737461747573206d7573742062652041435449564500000000000081525060200191505060405180910390fd5b60026003600083815260200190815260200160002060050160146101000a81548160ff02191690836002811115611f9a57fe5b021790555060006003600083815260200190815260200160002060040160009054906101000a900473ffffffffffffffffffffffffffffffffffffffff1673ffffffffffffffffffffffffffffffffffffffff163460405180600001905060006040518083038185875af1925050503d8060008114612035576040519150601f19603f3d011682016040523d82523d6000602084013e61203a565b606091505b50509050806120b1576040517f08c379a00000000000000000000000000000000000000000000000000000000081526004018080602001828103825260178152602001807f4572726f723a205472616e73666572206661696c65642e00000000000000000081525060200191505060405180910390fd5b34823373ffffffffffffffffffffffffffffffffffffffff167ff6a729c51ee4f70fe8ab76f78435ae19604ef1532842ac4ba1006a6fa85ebada60405160405180910390a45050565b60008060009054906101000a900473ffffffffffffffffffffffffffffffffffffffff16905090565b600060159054906101000a900460ff166121a5576040517f08c379a00000000000000000000000000000000000000000000000000000000081526004018080602001828103825260118152602001807f436f6e747261637420697320616c69766500000000000000000000000000000081525060200191505060405180910390fd5b6000809054906101000a900473ffffffffffffffffffffffffffffffffffffffff1673ffffffffffffffffffffffffffffffffffffffff163373ffffffffffffffffffffffffffffffffffffffff1614612267576040517f08c379a000000000000000000000000000000000000000000000000000000000815260040180806020018281038252601f8152602001807f4572726f723a206d73672e73656e646572206d757374206265206f776e65720081525060200191505060405180910390fd5b600047116122dd576040517f08c379a000000000000000000000000000000000000000000000000000000000815260040180806020018281038252601c8152602001807f4572726f723a2054686520636f6e747261637420697320656d7074790000000081525060200191505060405180910390fd5b60003373ffffffffffffffffffffffffffffffffffffffff164760405180600001905060006040518083038185875af1925050503d806000811461233d576040519150601f19603f3d011682016040523d82523d6000602084013e612342565b606091505b50509050806123b9576040517f08c379a00000000000000000000000000000000000000000000000000000000081526004018080602001828103825260178152602001807f4572726f723a205472616e73666572206661696c65642e00000000000000000081525060200191505060405180910390fd5b473373ffffffffffffffffffffffffffffffffffffffff167f528177d13e940a4046f20556c874626926405065674cbfe290eb1aae6ea44e1560405160405180910390a350565b600060149054906101000a900460ff1615612483576040517f08c379a00000000000000000000000000000000000000000000000000000000081526004018080602001828103825260138152602001807f436f6e7472616374206973207061757365642e0000000000000000000000000081525060200191505060405180910390fd5b600060159054906101000a900460ff1615612506576040517f08c379a00000000000000000000000000000000000000000000000000000000081526004018080602001828103825260108152602001807f436f6e747261637420697320646561640000000000000000000000000000000081525060200191505060405180910390fd5b806001600281111561251457fe5b6003600083815260200190815260200160002060050160149054906101000a900460ff16600281111561254357fe5b146125b6576040517f08c379a00000000000000000000000000000000000000000000000000000000081526004018080602001828103825260178152602001807f54686973206c6f616e206973206e6f742061637469766500000000000000000081525060200191505060405180910390fd5b6003600083815260200190815260200160002060050160009054906101000a900473ffffffffffffffffffffffffffffffffffffffff1673ffffffffffffffffffffffffffffffffffffffff163373ffffffffffffffffffffffffffffffffffffffff1614612670576040517f08c379a0000000000000000000000000000000000000000000000000000000008152600401808060200182810382526022815260200180612d4c6022913960400191505060405180910390fd5b6000600360008481526020019081526020016000206001015414156126fd576040517f08c379a000000000000000000000000000000000000000000000000000000000815260040180806020018281038252601e8152602001807f546865726520617265206e6f2066756e647320746f207265747269657665000081525060200191505060405180910390fd5b6000600360008481526020019081526020016000206001015490506000600360008581526020019081526020016000206001018190555060003373ffffffffffffffffffffffffffffffffffffffff168260405180600001905060006040518083038185875af1925050503d8060008114612794576040519150601f19603f3d011682016040523d82523d6000602084013e612799565b606091505b5050905080612810576040517f08c379a00000000000000000000000000000000000000000000000000000000081526004018080602001828103825260178152602001807f4572726f723a205472616e73666572206661696c65642e00000000000000000081525060200191505060405180910390fd5b813373ffffffffffffffffffffffffffffffffffffffff16857f07fa76b09de7d490ab4ed35bf0365df1474b9d21891fc1cfdf1c26f725965dd460405160405180910390a450505050565b60015481565b60036020528060005260406000206000915090508060000154908060010154908060020154908060030154908060040160009054906101000a900473ffffffffffffffffffffffffffffffffffffffff16908060050160009054906101000a900473ffffffffffffffffffffffffffffffffffffffff16908060050160149054906101000a900460ff16908060060154905088565b6000808314156129095760009050612976565b600082840290508284828161291a57fe5b0414612971576040517f08c379a0000000000000000000000000000000000000000000000000000000008152600401808060200182810382526021815260200180612d0a6021913960400191505060405180910390fd5b809150505b92915050565b60006129be83836040518060400160405280601a81526020017f536166654d6174683a206469766973696f6e206279207a65726f000000000000815250612a98565b905092915050565b600080828401905083811015612a44576040517f08c379a000000000000000000000000000000000000000000000000000000000815260040180806020018281038252601b8152602001807f536166654d6174683a206164646974696f6e206f766572666c6f77000000000081525060200191505060405180910390fd5b8091505092915050565b6000612a9083836040518060400160405280601e81526020017f536166654d6174683a207375627472616374696f6e206f766572666c6f770000815250612b5e565b905092915050565b60008083118290612b44576040517f08c379a00000000000000000000000000000000000000000000000000000000081526004018080602001828103825283818151815260200191508051906020019080838360005b83811015612b09578082015181840152602081019050612aee565b50505050905090810190601f168015612b365780820380516001836020036101000a031916815260200191505b509250505060405180910390fd5b506000838581612b5057fe5b049050809150509392505050565b6000838311158290612c0b576040517f08c379a00000000000000000000000000000000000000000000000000000000081526004018080602001828103825283818151815260200191508051906020019080838360005b83811015612bd0578082015181840152602081019050612bb5565b50505050905090810190601f168015612bfd5780820380516001836020036101000a031916815260200191505b509250505060405180910390fd5b5060008385039050809150509392505050565b828054600181600116156101000203166002900490600052602060002090601f016020900481019282601f10612c5f57805160ff1916838001178555612c8d565b82800160010185558215612c8d579182015b82811115612c8c578251825591602001919060010190612c71565b5b509050612c9a9190612c9e565b5090565b612cc091905b80821115612cbc576000816000905550600101612ca4565b5090565b9056fe4465706f7369742050657263656e746167652063616e6e6f7420657863656564203130304c6f616e206d757374206861766520616e206173736f6369617465642056616c7565536166654d6174683a206d756c7469706c69636174696f6e206f766572666c6f77596f75206d757374206465706f7369742074686520726967687420616d6f756e7452657175697265732074686520626f72726f776572206f662074686174206c6f616e596f75206d757374206265207468652061737369676e656420626f72726f77657220666f722074686973206c6f616e596f75206d75737420706179207468652066756c6c206c6f616e20616d6f756e7420696e636c7564696e67696e746572657374a265627a7a723158208fcf08b59914e764f639b64cf62ddd495ffeb203a7b24861209604c3594328b164736f6c63430005100032",
  "source": "pragma solidity >=0.5.0 <0.6.0;\r\n\r\nimport \"openzeppelin-solidity/contracts/math/SafeMath.sol\";\r\nimport \"./Stoppable.sol\";\r\n\r\n   /*\r\n   Inheritance map:\r\n   Loan -> Stoppable -> Ownable\r\n   ownership and circuit-breaker contracts\r\n   segregated from main code\r\n   */\r\n\r\ncontract Loan is Stoppable {\r\n\r\n   /*\r\n   The Loan contract is responsible for allowing\r\n   people to create peer-to-peer lending agreements.\r\n   */\r\n   /*\r\n   Safe guarding my contract from integer\r\n   overflow and underflow vulnerabilities.\r\n   */\r\n   using SafeMath for uint256;\r\n\r\n   /*\r\n   User-defined type to represent the state\r\n   of a loan at a particular stage in the life-cycle\r\n   of the loan.\r\n   */\r\n    enum Status {\r\n        PENDING,\r\n        ACTIVE,\r\n        RESOLVED\r\n    }\r\n\r\n    /* New type in the form of a struct to define\r\n    the characteristics of a loan. Limiting customisability\r\n    minimises potential vulnerabilities.\r\n    */\r\n    struct Loans {\r\n        uint fullAmount;\r\n        uint amount;\r\n        uint interest;\r\n        uint ID;\r\n        address lender;\r\n        address borrower;\r\n        Status status;\r\n        uint requiredDeposit;\r\n    }\r\n\r\n    /*\r\n    Instantiated in the constructor and incremented\r\n    after each loan creation to prevent a loan\r\n    having a ID collision.\r\n    */\r\n    uint public loanId;\r\n    string public creditScore;\r\n    \r\n    function set(string memory _creditScore) public {\r\n        creditScore = _creditScore;\r\n    }\r\n\r\n    function get() public view returns (string memory) {\r\n        return creditScore;\r\n    }\r\n\r\n    /*\r\n    Allows the view side to monitor &\r\n    react to certain functions\r\n    that get fired as well as log argument passed.\r\n    */\r\n    event LogLoanCreation(address indexed _lender, uint indexed _loanId);\r\n    event LogDeposit(address indexed _borrower, uint indexed _depositAmount);\r\n    event LogRetrieved(uint indexed _loanID, address indexed _borrower, uint indexed _amountRetrieved);\r\n    event LogPaid(address indexed _borrower, uint indexed _loanID, uint indexed _paidBack);\r\n    event LogKilledWithdraw(address indexed owner, uint indexed contractAmount);\r\n\r\n    mapping(uint256 => Loans) public loans;\r\n\r\n    /*\r\n    Checks if the deposit of the loan, with\r\n    the specified loan ID, has been paid.\r\n    */\r\n    modifier paidDeposit(uint _loanId) {\r\n         require(loans[_loanId].status == Status.ACTIVE, \"This loan is not active\");\r\n        _;\r\n    }\r\n\r\n    /*\r\n    Constructor, which is a function\r\n    that executes once (on deployment)\r\n    sets loanId to 1 which will be the ID\r\n    of the first loan created.\r\n    */\r\n    constructor() public {\r\n        loanId = 1;\r\n    }\r\n\r\n    /*\r\n    This function takes 3 arguments\r\n    in which the Lender (msg.sender)\r\n    defines the Loan parameters. Allowing\r\n    the creation of a loan. This function\r\n    is available as long as it hasn't been killed\r\n    or stopped (see stoppable & ownable).\r\n    */\r\n    function createLoan(uint _interest, address _borrower, uint _depositPercentage)\r\n    external\r\n    payable\r\n    whenRunning\r\n    whenAlive\r\n    returns(bool)\r\n    {   \r\n        require(_depositPercentage <= 100, \"Deposit Percentage cannot exceed 100\");\r\n        require(_borrower != address(0x0), \"Borrower's address cannot be 0\");\r\n        require(msg.value > 0, \"Loan must have an associated Value\");\r\n        emit LogLoanCreation(msg.sender, loanId);\r\n\r\n        uint256 depositPercentage = msg.value.mul(_depositPercentage).div(100);\r\n        uint256 fullAmount = msg.value.add(_interest);\r\n\r\n        loans[loanId] = Loans({\r\n            fullAmount: fullAmount,\r\n            amount: msg.value,\r\n            interest: _interest,\r\n            ID: loanId,\r\n            lender: msg.sender,\r\n            borrower: _borrower,\r\n            status: Status.ACTIVE,\r\n            requiredDeposit: depositPercentage\r\n        });\r\n\r\n        loanId = loanId + 1;\r\n        return true;\r\n    }\r\n\r\n    /*\r\n    This function allows the borrower to pay\r\n    the required deposit specified by the Lender.\r\n    The borrower specified by the lender must equal\r\n    the address of the person trying to pay the deposit.\r\n    As long as it hasn't been killed or stopped\r\n    (see stoppable & ownable).\r\n    */\r\n    function payLoanDeposit(uint _loanId)\r\n    external\r\n    payable\r\n    whenRunning\r\n    whenAlive\r\n    {   require(loans[_loanId].status == Status.ACTIVE, \"Loan status must be PENDING\");\r\n        require(msg.value == loans[_loanId].requiredDeposit, \"You must deposit the right amount\");\r\n        require(msg.sender == loans[_loanId].borrower, \"You must be the assigned borrower for this loan\");\r\n        loans[_loanId].status = Status.ACTIVE;\r\n        loans[_loanId].fullAmount = loans[_loanId].fullAmount.sub(loans[_loanId].requiredDeposit);\r\n        (bool success, ) = loans[_loanId].lender.call.value(msg.value)(\"\");\r\n        require(success, \"Error: Transfer failed.\");\r\n        emit LogDeposit(msg.sender, msg.value);\r\n    }\r\n\r\n    /*\r\n    This function allows the borrower to reimburse\r\n    the lender the full amount of the loan, given the\r\n    borrower's address matches the address specified\r\n    by the Lender. As long as it hasn't been killed or stopped\r\n    (see stoppable & ownable).\r\n    */\r\n    function payBackLoan(uint _loanId)\r\n    public\r\n    payable\r\n    whenRunning\r\n    whenAlive\r\n    {\r\n        require(msg.sender == loans[_loanId].borrower, \"You must be the assigned borrower for this loan\");\r\n        require(msg.value == (loans[_loanId].fullAmount), \"You must pay the full loan amount includinginterest\");\r\n        require(loans[_loanId].status == Status.ACTIVE, \"Loan status must be ACTIVE\");\r\n\r\n        loans[_loanId].status = Status.RESOLVED;\r\n        (bool success, ) = loans[_loanId].lender.call.value(msg.value)(\"\");\r\n        require(success, \"Error: Transfer failed.\");\r\n\r\n        emit LogPaid(msg.sender, _loanId, msg.value);\r\n    }\r\n\r\n    /*\r\n    This function allows the borrower to retrieve\r\n    the funds from the loan, at a given ID, assuming\r\n    the address calling the function is equal to the\r\n    borrowers address specified by the Lender.\r\n    As long as it hasn't been killed or stopped\r\n    (see stoppable & ownable).\r\n    */\r\n    function retrieveLoanFunds(uint _loanId)\r\n    public\r\n    payable\r\n    whenRunning\r\n    whenAlive\r\n    paidDeposit(_loanId)\r\n    {\r\n        require(msg.sender == loans[_loanId].borrower, \"Requires the borrower of that loan\");\r\n        require(loans[_loanId].amount != 0, \"There are no funds to retrieve\");\r\n        uint256 loanAmount = loans[_loanId].amount;\r\n\r\n        loans[_loanId].amount = 0;\r\n        (bool success, ) = msg.sender.call.value(loanAmount)(\"\");\r\n        require(success, \"Error: Transfer failed.\");\r\n\r\n        emit LogRetrieved(_loanId, msg.sender, loanAmount);\r\n    }\r\n\r\n    /*\r\n    A read only function that retrieves the\r\n    loan at a given ID, returning all the parameters\r\n    of that loan. As long as it hasn't been killed or stopped\r\n    (see stoppable & ownable).\r\n    */\r\n    function retrieveLoans(uint _loanId)\r\n    public\r\n    view\r\n    whenRunning\r\n    whenAlive\r\n    returns(\r\n    uint fullAmount,\r\n    uint amount,\r\n    uint interest,\r\n    address lender,\r\n    address borrower,\r\n    uint status,\r\n    uint requiredDeposit\r\n    )\r\n    {\r\n        fullAmount = loans[_loanId].fullAmount;\r\n        amount = loans[_loanId].amount;\r\n        interest = loans[_loanId].interest;\r\n        lender = loans[_loanId].lender;\r\n        borrower = loans[_loanId].borrower;\r\n        status = uint(loans[_loanId].status);\r\n        requiredDeposit = loans[_loanId].requiredDeposit;\r\n        return (fullAmount, amount, interest, lender, borrower, status, requiredDeposit);\r\n    }\r\n\r\n    /*\r\n    This function allows the owner to withdraw\r\n    all remaining funds from the contract in the unlikely\r\n    event that the contract must be killed. This will only\r\n    execute if the kill function has been called.\r\n    */\r\n    function withdrawWhenKilled()\r\n    public\r\n    whenKilled\r\n    onlyOwner\r\n    {\r\n        require(address(this).balance > 0, \"Error: The contract is empty\");\r\n        (bool success, ) = msg.sender.call.value(address(this).balance)(\"\");\r\n        require(success, \"Error: Transfer failed.\");\r\n        emit LogKilledWithdraw(msg.sender, address(this).balance);\r\n    }\r\n}\r\n\r\n\r\n",
  "sourcePath": "C:\\Users\\Linesh\\Desktop\\LoanProject\\contracts\\Loan.sol",
  "compiler": {
    "name": "solc",
    "version": "0.5.16+commit.9c3226ce.Emscripten.clang"
  },
  "schemaVersion": "3.4.4",
  "updatedAt": "2022-03-26T11:57:08.442Z",
  "networkType": "ethereum",
  "devdoc": {
    "methods": {}
  },
  "userdoc": {
    "methods": {}
  }
}